:100000000C9446000C9477000C9477000C947700C5
:100010000C9477000C9477000C9477000C94770084
:100020000C9477000C9477000C9477000C94770074
:100030000C9477000C9477000C9477000C94770064
:100040000C9477000C9477000C9477000C94770054
:100050000C9477000C9477000C9477000C94770044
:100060000C9477000C9477000C9477000C94770034
:100070000C9477000C9477000C9477000C94770024
:100080000C9477000C9477000C94770011241FBE19
:10009000CFEFD0E1DEBFCDBF0E9466000C945200CE
:0400A000F894FFCF02
:1000A400EC010E947C000E947B00CE010E947D0036
:0600B400CE010E9479005C
:1000BA009093900089B988E18AB986E08093950087
:0200CA00089597
:1000CC0083E390E00E945D000E9473000E946F0029
:0200DC00FBCF58
:0800DE005D9BFECF8CB9089573
:0800E6005F9BFECF8CB1089571
:0400EE000C9400006E
:0400F2000E94500018
:0200F60008956B
:0200F800089569
:0200FA00089567
:00000001FF
