S00C0000646973702E7372656368
S11300000C9455000C9474000C9474000C947400BB
S11300100C9474000C9474000C9474000C9474008C
S11300200C9474000C9474000C9474000C9474007C
S11300300C9474000C9474000C9474000C9474006C
S11300400C9474000C9474000C9474000C9474005C
S11300500C9474000C9474000C9474000C9474004C
S11300600C9474000C9474000C9474000C9474003C
S11300700C9474000C9474000C9474000C9474002C
S11300800C9474000C9474000C94740005A84CCD6A
S1130090B2D44EB93836A9020C50B9918688083CBE
S11300A0A6AAAA2ABE000000803F11241FBECFEFDB
S11300B0D0E1DEBFCDBF11E0A0E0B1E0E2E6F8E2BE
S11300C000E00BBF02C007900D92A430B107D9F72E
S11300D019E0A4E0B1E001C01D92A530B107E1F739
S11300E00E9476000C942F140C940000EF92FF925F
S11300F00F931F93DF93CF93CDB7DEB7A2970FB6BD
S1130100F894DEBF0FBECDBF1C8E1B8E12C01A8E9C
S1130110198E05C0898D9A8D01969A8F898F898D44
S11301209A8D84369105B4F38B8D9C8D01969C8FAA
S11301308B8F8B8D9C8D843691054CF385E00E94CA
S1130140E00A85E065E04BE72BE30E94EE0C0E9499
S11301500D112FE030E0B9010E948B100896AA27F8
S113016097FDA095BA2FBC01CD010E94F10EDC01D0
S1130170CB018D8B9E8BAF8BB88F0E940D112FE01E
S113018030E0B9010E948B100896AA2797FDA0952C
S1130190BA2FBC01CD010E94F10EDC01CB01898B89
S11301A09A8BAB8BBC8B0E940D1125E030E0B9011A
S11301B00E948B100196988B8F876D897E898F8919
S11301C0988D0E94BE0EDC01CB01EF85F88940E0DA
S11301D050E068E072E400E010E020E032E47F01E7
S11301E00E9451058F8598890E9490010E940D11EB
S11301F025E030E0B9010E948B100196988B8F871F
S113020069897A898B899C890E94BE0EDC01CB01A5
S1130210EF85F88940E050E064EB72E400E010E020
S113022020E032E47F010E9451050E94FF0D80E02E
S113023090E0AAE7B4E48B879C87AD87BE876B8583
S11302407C858D859E8520E030E04AEF54E40E9451
S1130250DE0FDC01CB018F839887A987BA876F8172
S1130260788589859A8520E030E040E85FE30E9444
S1130270B70E88232CF481E090E09E838D833FC0E9
S11302806F81788589859A8520E03FEF4FE757E4B1
S11302900E94DA0F18164CF56B857C858D859E853A
S11302A020E030E040E251E40E94DE0FDC01CB01AB
S11302B0BC01CD010E94C30EDC01CB019E838D8362
S11302C00FC088EC90E09C838B838B819C81019789
S11302D0F1F79C838B838D819E8101979E838D830F
S11302E08D819E81009769F714C06F817885898517
S11302F09A850E94C30EDC01CB019E838D838D8180
S11303009E819A83898389819A810197F1F79A83DF
S1130310898386E066E04AE72AE30E94C20C17CF8D
S1130320DF93CF93CDB7DEB7AE970FB6F894DEBFA9
S11303300FBECDBF9EA78DA780E090E0A0E0B0E007
S113034089A79AA7ABA7BCA780E090E0A0E0B0E0A3
S11303508DA39EA3AFA3B8A780E090E0A0E0B0E097
S113036089A39AA3ABA3BCA380E090E0A0E0B0E093
S11303708D8F9E8FAF8FB8A380E090E0A0E0B0E0B7
S1130380898F9A8FAB8FBC8F80E090E0A0E0B0E0C3
S11303908D8B9E8BAF8BB88F80E090E0A0EEB0E4A5
S11303A08F87988BA98BBA8B8DA59EA581309105DB
S11303B009F0A5C080E090E0A8E7B2E48DA39EA375
S11303C0AFA3B8A780E090E0A8E3B2E489A39AA31E
S11303D0ABA3BCA381E090E09E878D8789C08D8507
S11303E09E85AA2797FDA095BA2FBC01CD010E9436
S11303F0F10EDC01CB0189A79AA7ABA7BCA78D8519
S11304009E85AA2797FDA095BA2FBC01CD010E9415
S1130410F10EDC01CB01BC01CD0127EA37EE4EE839
S11304205CE30E94DE0FDC01CB018D8F9E8FAF8FCA
S1130430B8A38D8D9E8DAF8DB8A1BC01CD010E9456
S1130440BB0EDC01CB01898F9A8FAB8FBC8F8D8D56
S11304509E8DAF8DB8A1BC01CD010E944110DC017D
S1130460CB018D8B9E8BAF8BB88F6F8578898989F3
S11304709A89298D3A8D4B8D5C8D0E94DE0FDC01AB
S1130480CB01BC01CD012DA13EA14FA158A50E94D5
S1130490530EDC01CB01BC01CD010E94C30EDC0173
S11304A0CB018C8B6F85788989899A892D893E89BE
S11304B04F89588D0E94DE0FDC01CB01BC01CD01B8
S11304C029A13AA14BA15CA10E94530EDC01CB01EE
S11304D0BC01CD010E94C30EDC01CB018B8B8C8946
S11304E06B890E946F0B8D859E8501969E878D87F3
S11304F08D859E85853B91050CF471CFC9C28DA570
S11305009EA58230910539F480E36EE24CE42EE23C
S11305100E94260DBDC28DA59EA58330910509F0CC
S1130520A6C080E090E0A8E7B2E48DA39EA3AFA3A9
S1130530B8A780E090E0A8E3B2E489A39AA3ABA3B0
S1130540BCA384EB90E09E878D8789C08D859E85B2
S1130550AA2797FDA095BA2FBC01CD010E94F10EE8
S1130560DC01CB0189A79AA7ABA7BCA78D859E8583
S1130570AA2797FDA095BA2FBC01CD010E94F10EC8
S1130580DC01CB01BC01CD0127EA37EE4EE85CE388
S11305900E94DE0FDC01CB018D8F9E8FAF8FB8A33D
S11305A08D8D9E8DAF8DB8A1BC01CD010E94BB0E77
S11305B0DC01CB01898F9A8FAB8FBC8F8D8D9E8D83
S11305C0AF8DB8A1BC01CD010E944110DC01CB016B
S11305D08D8B9E8BAF8BB88F6F85788989899A892B
S11305E0298D3A8D4B8D5C8D0E94DE0FDC01CB0191
S11305F0BC01CD012DA13EA14FA158A50E94530ECF
S1130600DC01CB01BC01CD010E94C30EDC01CB0196
S11306108C8B6F85788989899A892D893E894F8940
S1130620588D0E94DE0FDC01CB01BC01CD0129A154
S11306303AA14BA15CA10E94530EDC01CB01BC0189
S1130640CD010E94C30EDC01CB018B8B8C896B899D
S11306500E946F0B8D859E8501969E878D878D8563
S11306609E8521E0893692070CF470CF11C28DA5C6
S11306709EA58430910509F055C180E090E0A0EA80
S1130680B0E489879A87AB87BC8780E090E0A0E8D4
S1130690B0E48D839E83AF83B88780E090E0A4E6C6
S11306A0B2E48DA39EA3AFA3B8A780E090E0A8E333
S11306B0B2E489A39AA3ABA3BCA31E861D8689C0FA
S11306C08D859E85AA2797FDA095BA2FBC01CD01E3
S11306D00E94F10EDC01CB0189A79AA7ABA7BCA7A6
S11306E08D859E85AA2797FDA095BA2FBC01CD01C3
S11306F00E94F10EDC01CB01BC01CD0127EA37EEEB
S11307004EE85CE30E94DE0FDC01CB018D8F9E8FEF
S1130710AF8FB8A38D8D9E8DAF8DB8A1BC01CD01D7
S11307200E94BB0EDC01CB01898F9A8FAB8FBC8FEB
S11307308D8D9E8DAF8DB8A1BC01CD010E9441105D
S1130740DC01CB018D8B9E8BAF8BB88F69857A854D
S11307508B859C85298D3A8D4B8D5C8D0E94DE0F97
S1130760DC01CB01BC01CD012DA13EA14FA158A5B7
S11307700E94530EDC01CB01BC01CD010E94C30ECB
S1130780DC01CB018C8B69857A858B859C852D89D1
S11307903E894F89588D0E94DE0FDC01CB01BC01DC
S11307A0CD0129A13AA14BA15CA10E94530EDC0109
S11307B0CB01BC01CD010E94C30EDC01CB018B8BAC
S11307C08C896B890E946F0B8D859E8501969E870F
S11307D08D878D859E85853B91050CF471CF80E0D6
S11307E090E0A4E8B2E48DA39EA3AFA3B8A780E0F1
S11307F090E0A8E3B2E489A39AA3ABA3BCA31E86AA
S11308001D8689C08D859E85AA2797FDA095BA2F40
S1130810BC01CD010E94F10EDC01CB0189A79AA78E
S1130820ABA7BCA78D859E85AA2797FDA095BA2F57
S1130830BC01CD010E94F10EDC01CB01BC01CD0154
S113084027EA37EE4EE85CE30E94DE0FDC01CB01C1
S11308508D8F9E8FAF8FB8A38D8D9E8DAF8DB8A1D8
S1130860BC01CD010E94BB0EDC01CB01898F9A8FA4
S1130870AB8FBC8F8D8D9E8DAF8DB8A1BC01CD018A
S11308800E944110DC01CB018D8B9E8BAF8BB88F06
S11308906D817E818F819885298D3A8D4B8D5C8DFC
S11308A00E94DE0FDC01CB01BC01CD012DA13EA1D4
S11308B04FA158A50E94530EDC01CB01BC01CD0110
S11308C00E94C30EDC01CB018C8B6D817E818F81F4
S11308D098852D893E894F89588D0E94DE0FDC0151
S11308E0CB01BC01CD0129A13AA14BA15CA10E947D
S11308F0530EDC01CB01BC01CD010E94C30EDC010F
S1130900CB018B8B8C896B890E946F0B8D859E85A7
S113091001969E878D878D859E85853B91050CF478
S113092071CFB6C08DA59EA58530910509F0B0C0E4
S113093080E090E0A0ECB0E489839A83AB83BC832D
S113094080E36EE24CE42EE20E94260D80E090E00B
S1130950A0E9B2E48DA39EA3AFA3B8A780E090E082
S1130960A8E3B2E489A39AA3ABA3BCA31E861D8605
S113097089C08D859E85AA2797FDA095BA2FBC01B5
S1130980CD010E94F10EDC01CB0189A79AA7ABA788
S1130990BCA78D859E85AA2797FDA095BA2FBC017B
S11309A0CD010E94F10EDC01CB01BC01CD0127EA8F
S11309B037EE4EE85CE30E94DE0FDC01CB018D8F45
S11309C09E8FAF8FB8A38D8D9E8DAF8DB8A1BC01C6
S11309D0CD010E94BB0EDC01CB01898F9A8FAB8FB6
S11309E0BC8F8D8D9E8DAF8DB8A1BC01CD010E94B1
S11309F04110DC01CB018D8B9E8BAF8BB88F69814D
S1130A007A818B819C81298D3A8D4B8D5C8D0E94DE
S1130A10DE0FDC01CB01BC01CD012DA13EA14FA114
S1130A2058A50E94530EDC01CB01BC01CD010E94EC
S1130A30C30EDC01CB018C8B69817A818B819C8113
S1130A402D893E894F89588D0E94DE0FDC01CB0130
S1130A50BC01CD0129A13AA14BA15CA10E94530E76
S1130A60DC01CB01BC01CD010E94C30EDC01CB0132
S1130A708B8B8C896B890E946F0B8D859E8501966B
S1130A809E878D878D859E85853B91050CF471CF5E
S1130A90AE960FB6F894DEBF0FBECDBFCF91DF91F7
S1130AA00895EF92FF920F931F93DF93CF93CDB7E7
S1130AB0DEB7AC970FB6F894DEBF0FBECDBF9AA3D6
S1130AC089A34BA35CA36DA37EA30FA318A729A797
S1130AD03AA7FCA6EBA680E090E0A0E0B0E08D8F02
S1130AE09E8FAF8FB8A38BA19CA1ADA1BEA1898F0E
S1130AF09A8FAB8FBC8F8FA198A5A9A5BAA58D8B12
S1130B009E8BAF8BB88F80E090E0A0E0B0E0898B43
S1130B109A8BAB8BBC8B80E090E0A0E0B0E08D873B
S1130B209E87AF87B88B80E090E0A0E0B0E0898733
S1130B309A87AB87BC8789A19AA1AA2797FDA0951C
S1130B40BA2FBC01CD010E94F10EDC01CB018B83D5
S1130B509C83AD83BE838BA59CA58130910531F028
S1130B608BA59CA58230910509F096C081E090E0A8
S1130B709A83898389C089819A81AA2797FDA09540
S1130B80BA2FBC01CD010E94F10EDC01CB018D8F87
S1130B909E8FAF8FB8A389819A81AA2797FDA095CC
S1130BA0BA2FBC01CD010E94F10EDC01CB01BC01C6
S1130BB0CD0127EA37EE4EE85CE30E94DE0FDC014C
S1130BC0CB01898B9A8BAB8BBC8B89899A89AB8936
S1130BD0BC89BC01CD010E94BB0EDC01CB018D8719
S1130BE09E87AF87B88B89899A89AB89BC89BC01F8
S1130BF0CD010E944110DC01CB0189879A87AB8724
S1130C00BC876B817C818D819E812D853E854F853E
S1130C1058890E94DE0FDC01CB01BC01CD01298D76
S1130C203A8D4B8D5C8D0E94530EDC01CB01BC01CF
S1130C30CD010E94C30EDC01CB0188876B817C81CE
S1130C408D819E8129853A854B855C850E94DE0FC6
S1130C50DC01CB01BC01CD012D893E894F89588D22
S1130C600E94530EDC01CB01BC01CD010E94C30ED6
S1130C70DC01CB018F8388856F810E946F0B898192
S1130C809A8101969A83898389819A8121E08936A0
S1130C9092070CF470CFD4C28BA59CA58330910528
S1130CA031F08BA59CA58430910509F03AC181E00F
S1130CB090E09A83898389C089819A81AA2797FDC4
S1130CC0A095BA2FBC01CD010E94F10EDC01CB012D
S1130CD08D8F9E8FAF8FB8A389819A81AA2797FDA4
S1130CE0A095BA2FBC01CD010E94F10EDC01CB010D
S1130CF0BC01CD0127EA37EE4EE85CE30E94DE0F2B
S1130D00DC01CB01898B9A8BAB8BBC8B89899A894B
S1130D10AB89BC89BC01CD010E94BB0EDC01CB01B7
S1130D208D879E87AF87B88B89899A89AB89BC895F
S1130D30BC01CD010E944110DC01CB0189879A8757
S1130D40AB87BC876B817C818D819E812D853E859F
S1130D504F8558890E94DE0FDC01CB01BC01CD0117
S1130D60298D3A8D4B8D5C8D0E94530EDC01CB0195
S1130D70BC01CD010E94C30EDC01CB0188876B81CD
S1130D807C818D819E8129853A854B855C850E9475
S1130D90DE0FDC01CB01BC01CD012D893E894F89D9
S1130DA0588D0E94530EDC01CB01BC01CD010E9481
S1130DB0C30EDC01CB018F8388856F810E946F0B8A
S1130DC089819A8101969A83898389819A8121E014
S1130DD0893692070CF470CF6BA17CA18DA19EA1E2
S1130DE02B813C814D815E810E94520EDC01CB013E
S1130DF0BC01CD0120E030E040E051E40E94530EFC
S1130E00DC01CB01BC01CD010E94C30EDC01CB018E
S1130E10082F6FA178A589A59AA50E94C30EDC01AD
S1130E20CB01F82E6BA17CA18DA19EA12B813C81CD
S1130E304D815E810E94530EDC01CB01BC01CD01CA
S1130E4020E030E040E051E40E94520EDC01CB018E
S1130E50BC01CD010E94C30EDC01CB01182F6FA190
S1130E6078A589A59AA50E94C30EDC01CB01982F11
S1130E70802F6F2D412F292F0E94260D6BA17CA15D
S1130E808DA19EA10E94C30EDC01CB01182F6FA17E
S1130E9078A589A59AA52B813C814D815E810E940C
S1130EA0520EDC01CB01BC01CD0120E030E040E07A
S1130EB051E40E94530EDC01CB01BC01CD010E9420
S1130EC0C30EDC01CB01082F6BA17CA18DA19EA1D7
S1130ED00E94C30EDC01CB01F82E6FA178A589A571
S1130EE09AA52B813C814D815E810E94530EDC01C9
S1130EF0CB01BC01CD0120E030E040E051E40E9490
S1130F00520EDC01CB01BC01CD010E94C30EDC01F9
S1130F10CB01982F812F602F4F2D292F0E94260D52
S1130F208FC18BA59CA58530910509F089C181E00D
S1130F3090E09A83898389C089819A81AA2797FD41
S1130F40A095BA2FBC01CD010E94F10EDC01CB01AA
S1130F508D8F9E8FAF8FB8A389819A81AA2797FD21
S1130F60A095BA2FBC01CD010E94F10EDC01CB018A
S1130F70BC01CD0127EA37EE4EE85CE30E94DE0FA8
S1130F80DC01CB01898B9A8BAB8BBC8B89899A89C9
S1130F90AB89BC89BC01CD010E94BB0EDC01CB0135
S1130FA08D879E87AF87B88B89899A89AB89BC89DD
S1130FB0BC01CD010E944110DC01CB0189879A87D5
S1130FC0AB87BC876B817C818D819E812D853E851D
S1130FD04F8558890E94DE0FDC01CB01BC01CD0195
S1130FE0298D3A8D4B8D5C8D0E94530EDC01CB0113
S1130FF0BC01CD010E94C30EDC01CB0188876B814B
S11310007C818D819E8129853A854B855C850E94F2
S1131010DE0FDC01CB01BC01CD012D893E894F8956
S1131020588D0E94530EDC01CB01BC01CD010E94FE
S1131030C30EDC01CB018F8388856F810E946F0B07
S113104089819A8101969A83898389819A8121E091
S1131050893692070CF470CF6BA17CA18DA19EA15F
S11310602B813C814D815E810E94520EDC01CB01BB
S1131070BC01CD0120E030E040E051E40E94530E79
S1131080DC01CB01BC01CD010E94C30EDC01CB010C
S1131090182F6FA178A589A59AA52B813C814D8134
S11310A05E810E94520EDC01CB01BC01CD0120E027
S11310B030E040E051E40E94530EDC01CB01BC015E
S11310C0CD010E94C30EDC01CB01082F6BA17CA1D2
S11310D08DA19EA12B813C814D815E810E94530E86
S11310E0DC01CB01BC01CD0120E030E040E051E463
S11310F00E94520EDC01CB01BC01CD010E94C30E43
S1131100DC01CB01F82E6FA178A589A59AA52B81C6
S11311103C814D815E810E94530EDC01CB01BC01F8
S1131120CD0120E030E040E051E40E94520EDC01A9
S1131130CB01BC01CD010E94C30EDC01CB01982F71
S1131140812F602F4F2D292F0E94260D6BA17CA18A
S11311508DA19EA12B813C814D815E810E94530E05
S1131160DC01CB01BC01CD0120E030E040E051E4E2
S11311700E94520EDC01CB01BC01CD010E94C30EC2
S1131180DC01CB01182F6FA178A589A59AA52B8125
S11311903C814D815E810E94520EDC01CB01BC0179
S11311A0CD0120E030E040E051E40E94530EDC0128
S11311B0CB01BC01CD010E94C30EDC01CB01082F81
S11311C06BA17CA18DA19EA12B813C814D815E816F
S11311D00E94520EDC01CB01BC01CD0120E030E0C5
S11311E040E051E40E94530EDC01CB01BC01CD016F
S11311F00E94C30EDC01CB01F82E6FA178A589A54E
S11312009AA52B813C814D815E810E94530EDC01A5
S1131210CB01BC01CD0120E030E040E051E40E946C
S1131220520EDC01CB01BC01CD010E94C30EDC01D6
S1131230CB01982F812F602F4F2D292F0E94260D2F
S1131240AC960FB6F894DEBF0FBECDBFCF91DF9141
S11312501F910F91FF90EF900895DF93CF930F921A
S1131260CDB7DEB789838981809304010F90CF9134
S1131270DF910895DF93CF93CDB7DEB7AA970FB66A
S1131280F894DEBF0FBECDBFA4E3B0E0E4E3F0E02A
S113129080818F618C9380E090E0A0EFB1E48FA314
S11312A098A7A9A7BAA76FA178A589A59AA520E0B0
S11312B030E04AEF54E40E94DE0FDC01CB018BA343
S11312C09CA3ADA3BEA36BA17CA18DA19EA120E094
S11312D030E040E85FE30E94B70E88232CF481E0FD
S11312E090E09AA389A33FC06BA17CA18DA19EA18C
S11312F020E03FEF4FE757E40E94DA0F18164CF551
S11313006FA178A589A59AA520E030E040E251E4D8
S11313100E94DE0FDC01CB01BC01CD010E94C30E93
S1131320DC01CB019AA389A30FC088EC90E098A3B9
S11313308F8F8F8D98A10197F1F798A38F8F89A133
S11313409AA101979AA389A389A19AA1009769F701
S113135014C06BA17CA18DA19EA10E94C30EDC01CF
S1131360CB019AA389A389A19AA19E8F8D8F8D8D7C
S11313709E8D0197F1F79E8F8D8FA5E3B0E0E5E395
S1131380F0E080818E7F8C9380E090E0A0EFB1E468
S1131390898F9A8FAB8FBC8F698D7A8D8B8D9C8D45
S11313A020E030E04AEF54E40E94DE0FDC01CB0180
S11313B08D8B9E8BAF8BB88F6D897E898F89988D2D
S11313C020E030E040E85FE30E94B70E88232CF46D
S11313D081E090E09C8B8B8B3FC06D897E898F89E7
S11313E0988D20E03FEF4FE757E40E94DA0F18167C
S11313F04CF5698D7A8D8B8D9C8D20E030E040E238
S113140051E40E94DE0FDC01CB01BC01CD010E943E
S1131410C30EDC01CB019C8B8B8B0FC088EC90E05E
S11314209A8B898B89899A890197F1F79A8B898B91
S11314308B899C8901979C8B8B8B8B899C890097CA
S113144069F714C06D897E898F89988D0E94C30EB7
S1131450DC01CB019C8B8B8B8B899C89988B8F8730
S11314608F8598890197F1F7988B8F87A5E3B0E072
S1131470E5E3F0E0808181608C9380E090E0A0EF70
S1131480B1E48B879C87AD87BE876B857C858D8512
S11314909E8520E030E04AEF54E40E94DE0FDC0138
S11314A0CB018F839887A987BA876F8178858985CF
S11314B09A8520E030E040E85FE30E94B70E88237D
S11314C02CF481E090E09E838D833FC06F8178850A
S11314D089859A8520E03FEF4FE757E40E94DA0FB1
S11314E018164CF56B857C858D859E8520E030E053
S11314F040E251E40E94DE0FDC01CB01BC01CD01CE
S11315000E94C30EDC01CB019E838D830FC088EC47
S113151090E09C838B838B819C810197F1F79C8362
S11315208B838D819E8101979E838D838D819E8186
S1131530009769F714C06F81788589859A850E9420
S1131540C30EDC01CB019E838D838D819E819A83A2
S1131550898389819A810197F1F79A8389838BEE34
S113156060E00E94EF0A83E260E00E94EF0A81E8F3
S113157060E00E94EF0A84E660E00E94EF0A8FEACE
S113158060E00E94EF0A8CEC60E00E94EF0A809118
S11315900401882F90E082709070009721F087EA10
S11315A060E00E94EF0A0E94B30C0E94FF0DAA960D
S11315B00FB6F894DEBF0FBECDBFCF91DF91089573
S11315C0DF93CF930F92CDB7DEB7898389810E94D1
S11315D02D090E943A090F90CF91DF910895DF936E
S11315E0CF9300D000D000D0CDB7DEB78D836E830B
S11315F0A5E3B0E0E5E3F0E080818D7F8C938E81FC
S1131600813041F4A5E3B0E0E5E3F0E0808184605B
S11316108C9307C0A5E3B0E0E5E3F0E080818B7F25
S11316208C931A82198245C08D81482F50E027E09F
S113163030E089819A81B901681B790BCB019A0149
S113164002C0359527958A95E2F7C901817090709B
S1131650882341F0A5E3B0E0E5E3F0E08081886011
S11316608C9307C0A5E3B0E0E5E3F0E08081877FD9
S11316708C93A5E3B0E0E5E3F0E0808180618C9396
S11316801C821B8205C08B819C8101969C838B8369
S11316908B819C8184309105B4F3A5E3B0E0E5E34C
S11316A0F0E080818F7E8C9389819A8101969A8360
S11316B0898389819A81883091050CF4B5CFA5E39B
S11316C0B0E0E5E3F0E0808182608C9326960FB66B
S11316D0F894DEBF0FBECDBFCF91DF910895DF93A5
S11316E0CF9300D000D0CDB7DEB78B836C838091CD
S11316F00401882F90E081709070009709F043C036
S11317008B81803408F085C08C8188230CF481C0DF
S11317108B81482F469546954695842F90E09C01F1
S11317203695322F2227379527958C81882F90E084
S1131730B901680F791F842F90E09C013695322FF0
S11317402227379527958C81882F90E0820F931F4D
S1131750FC01EB5FFA4F8081482F8B81882F90E04A
S1131760809590959C012770307081E090E0022E66
S113177002C0880F991F0A94E2F7842BFB01EB5FE8
S1131780FA4F808346C08B818A838C8189838981C7
S11317908B839FE78A81292F281B822F8C838B813F
S11317A0482F469546954695842F90E09C013695A2
S11317B0322F2227379527958C81882F90E0B90105
S11317C0680F791F842F90E09C013695322F2227D1
S11317D0379527958C81882F90E0820F931FFC0109
S11317E0EB5FFA4F8081482F8B81882F90E08095A2
S11317F090959C012770307081E090E0022E02C029
S1131800880F991F0A94E2F7842BFB01EB5FFA4FD0
S113181080830F900F900F900F90CF91DF910895D8
S1131820DF93CF9300D000D0CDB7DEB78B836C832A
S113183080910401882F90E081709070009709F0E6
S113184044C08B81803408F087C08C8188230CF4D9
S113185083C08B81482F469546954695842F90E00A
S11318609C013695322F2227379527958C81882F16
S113187090E0B901680F791F842F90E09C013695A0
S1131880322F2227379527958C81882F90E0820F5D
S1131890931FFC01EB5FFA4F8081482F8B81882FC7
S11318A090E0809590959C012770307081E090E0E5
S11318B0022E02C0880F991F0A94E2F780958423B0
S11318C0FB01EB5FFA4F808347C08B818A838C8155
S11318D0898389818B839FE78A81292F281B822F03
S11318E08C838B81482F469546954695842F90E0AE
S11318F09C013695322F2227379527958C81882F86
S113190090E0B901680F791F842F90E09C0136950F
S1131910322F2227379527958C81882F90E0820FCC
S1131920931FFC01EB5FFA4F8081482F8B81882F36
S113193090E0809590959C012770307081E090E054
S1131940022E02C0880F991F0A94E2F7809584231F
S1131950FB01EB5FFA4F80830F900F900F900F9075
S1131960CF91DF910895DF93CF93CDB7DEB785E0B4
S113197095E060E070E040E054E00E942611CF91D1
S1131980DF910895DF93CF9300D000D000D0CDB77E
S1131990DEB78B836C834D832E838C818A8311C045
S11319A08B81898307C089816A810E94100C898197
S11319B08F5F898399818D819817A8F38A818F5FBE
S11319C08A839A818E81981758F326960FB6F894D5
S11319D0DEBF0FBECDBFCF91DF910895DF93CF93CC
S11319E000D000D000D0CDB7DEB78B836C834D839D
S11319F02E838B818A830BC08A816C810E946F0B3A
S1131A008A816E810E946F0B8A818F5F8A839A819B
S1131A108D81891788F78C8189830BC08B816981BB
S1131A200E946F0B8D8169810E946F0B89818F5F8A
S1131A30898399818E81891788F726960FB6F89441
S1131A40DEBF0FBECDBFCF91DF910895DF93CF935B
S1131A50CDB7DEB76A970FB6F894DEBF0FBECDBF21
S1131A608D876E874F87288B8F85282F30E08D8553
S1131A70882F90E0A901481B590BCA019C878B87CA
S1131A808B859C8599233CF48B859C8590958195C9
S1131A909F4F9C878B879D858F85981728F481E0BD
S1131AA090E09E8B8D8B04C04FEF5FEF5E8B4D8B70
S1131AB08D899E899A8789878889282F30E08E8529
S1131AC0882F90E0A901481B590BCA0198878F837E
S1131AD08F81988599233CF48F8198859095819581
S1131AE09F4F98878F839E858889981728F481E073
S1131AF090E09C8B8B8B04C04FEF5FEF5C8B4B8B28
S1131B008B899C899E838D832B853C858F819885C9
S1131B1082179307BCF08F819885909581959F4F8C
S1131B20988F8F8B4F89588D55232CF48F89988DDE
S1131B300196988F8F8B8F89988D959587959A8B21
S1131B40898B13C08B859C859A8F898F498D5A8D7B
S1131B5055232CF4898D9A8D01969A8F898F898DBE
S1131B609A8D959587959A8B898B49895A895C8337
S1131B704B838D856E850E946F0B9D858F8598178D
S1131B8021F49E858889981789F18B819C819A8399
S1131B9089838B859C8522273327281B390B8981D0
S1131BA09A812817390774F42B813C818F81988599
S1131BB0A901481B590BCA019C838B8399858D8588
S1131BC0890F8D8729813A818F8198852817390754
S1131BD084F62B813C818B859C85820F931F9C838B
S1131BE08B839D818E85890F8E87C3CF6A960FB6AE
S1131BF0F894DEBF0FBECDBFCF91DF910895DF9380
S1131C00CF9300D000D0CDB7DEB787E090E09C83BF
S1131C108B8334C09B8187E0891B806B60E00E94CA
S1131C20EF0A80E160E00E94EF0A84E060E00E9435
S1131C30EF0A1A82198218C08B819C819C01369507
S1131C40322F22273795279589819A81820F931FF6
S1131C50FC01EB5FFA4F808161E00E94EF0A898109
S1131C609A8101969A83898389819A818038910522
S1131C701CF38B819C8101979C838B838B819C813A
S1131C80992344F685E091E025E035E0B90140E090
S1131C9054E00E941D110F900F900F900F90CF9160
S1131CA0DF9108955058BB27AA270ED038C101D11F
S1131CB030F006D120F031F49F3F11F41EF4F6C049
S1131CC00EF4E095E7FBECC0E92F4BD180F3BA1793
S1131CD0620773078407950718F071F49EF563C1D2
S1131CE00EF4E0950B2EBA2FA02D0B01B901900133
S1131CF00C01CA01A0011124FF27591B99F0593F77
S1131D0050F4503E68F11A16F040A22F232F342FBE
S1131D104427585FF3CF469537952795A795F0400C
S1131D205395C9F77EF41F16BA0B620B730B840B21
S1131D30BAF09150A1F0FF0FBB1F661F771F881FD9
S1131D40C2F70EC0BA0F621F731F841F48F4879531
S1131D5077956795B795F7959E3F08F0B3CF939520
S1131D60880F08F09927EE0F97958795089574D0FA
S1131D7008F481E00895ACD0E395E2C004D06894FF
S1131D80B11112C10895F5D088F09F5790F0B92F82
S1131D909927B751A0F0D1F0660F771F881F991FBC
S1131DA01AF0BA95C9F712C0B13081F0FCD0B1E095
S1131DB00895F9C0672F782F8827B85F39F0B93FA5
S1131DC0CCF3869577956795B395D9F73EF49095BE
S1131DD08095709561957F4F8F4F9F4F0895E8943C
S1131DE009C097FB3EF490958095709561957F4F5F
S1131DF08F4F9F4F9923A9F0F92F96E9BB2793950D
S1131E00F695879577956795B795F111F8CFFAF41C
S1131E10BB0F11F460FF1BC06F5F7F4F8F4F9F4F4D
S1131E2016C0882311F096E911C0772321F09EE8AB
S1131E30872F762F05C0662371F096E8862F70E011
S1131E4060E02AF09A95660F771F881FDAF7880FEB
S1131E509695879597F90895990F0008550FAA0B41
S1131E60E0E8FEEF16161706E807F907C0F01216A9
S1131E701306E407F50798F0621B730B840B950BAC
S1131E8039F40A2661F0232B242B252B21F4089501
S1131E900A2609F4A140A6958FEF811D811D08959E
S1131EA097F99F6780E870E060E008959FEF80EC09
S1131EB0089500240A9416161706180609060895AC
S1131EC000240A9412161306140605060895EECF8C
S1131ED050D0E8F3E894E0E0BB279F57F0F02AEDF8
S1131EE03FE049EC06C0EE0FBB0F661F771F881F4B
S1131EF028F0B23A62077307840728F0B25A620BDB
S1131F00730B840BE3959A9572F7803830F49A95A5
S1131F10BB0F661F771F881FD2F79048BAC0092EDF
S1131F200394000C11F4882352F0BB0F40F4BF2B30
S1131F3011F460FF04C06F5F7F4F8F4F9F4F089570
S1131F40EF93E0FF06C0A2EA2AED3FE049EC5FEB25
S1131F50BBDEE5DF0F90039401FC9058ECE8F0E061
S1131F60A4C057FD9058440F551F59F05F3F71F0BE
S1131F704795880F97FB991F61F09F3F79F08795EC
S1131F800895121613061406551FF2CF4695F1DF75
S1131F9008C0161617061806991FF1CF8695710505
S1131FA0610508940895E894BB2766277727CB0139
S1131FB097F9089551DF08F48FEF08950BD0AFCF50
S1131FC078DF28F07DDF18F0952309F069CF6ECF14
S1131FD01124EACFC6DFA0F3959FD1F3950F50E00B
S1131FE0551F629FF001729FBB27F00DB11D639FC7
S1131FF0AA27F00DB11DAA1F649F6627B00DA11D6D
S1132000661F829F2227B00DA11D621F739FB00D12
S1132010A11D621F839FA00D611D221F749F332782
S1132020A00D611D231F849F600D211D822F762F1B
S11320306A2F11249F5750408AF0E1F088234AF018
S1132040EE0FFF1FBB1F661F771F881F9150504064
S1132050A9F79E3F510570F023CFA6CF5F3FECF365
S1132060983EDCF3869577956795B795F795E79550
S11320709F5FC1F7FE2B880F911D9695879597F961
S113208008959F9325DF0F9007FCEE5F59CF9F3F84
S113209031F0915020F4879577956795B795880F1F
S11320A0911D9695879597F908959F938F937F93A4
S11320B06F93FF93EF939B01AC0180DFEF91FF914E
S11320C005D02F913F914F915F9178CFDF93CF93BC
S11320D01F930F93FF92EF92DF927B018C01689420
S11320E005C0DA2EEF0176DFFE01E894A591259173
S11320F0359145915591AEF3EF01E6DDFE0197016F
S1132100A801DA9479F7DF90EF90FF900F911F9177
S1132110CF91DF91089597FB092E07260AD077FD0A
S113212004D00CD006D000201AF4709561957F4F2E
S11321300895F6F7909581959F4F0895AA1BBB1BB0
S113214051E107C0AA1FBB1FA617B70710F0A61BB3
S1132150B70B881F991F5A95A9F780959095BC01D4
S1132160CD010895AF92BF92CF92DF92EF92FF928A
S11321700F931F93CF93DF93EC01A880B980CA809B
S1132180DB80A114B104C104D10441F484E2A82E7B
S113219089EDB82E8BE5C82E87E0D82EC601B5018F
S11321A02DE133EF41E050E00E94F21327EA31E4DD
S11321B040E050E00E94D3137B018C01C601B501BD
S11321C02DE133EF41E050E00E94F213CA01B9015E
S11321D02CEE34EF4FEF5FEF0E94D3136E0D7F1D93
S11321E0801F911F97FF04C0615070408040904849
S11321F0688379838A839B839B013F77C901DF913D
S1132200CF911F910F91FF90EF90DF90CF90BF90EF
S1132210AF9008950E94B210089580E091E00E946A
S1132220B2100895A0E0B0E0809300019093010102
S1132230A0930201B09303010895FB01DC0102C0E5
S113224001900D9241505040D8F70895DC0101C02F
S11322506D9341505040E0F708952F923F924F9272
S11322605F926F927F928F929F92AF92BF92CF9222
S1132270DF92EF92FF920F931F93DF93CF93CDB72B
S1132280DEB72B970FB6F894DEBF0FBECDBF3C016F
S11322902B015A01FC0117821682838181FD03C040
S11322A06FEF7FEFC6C19AE0892E1E010894211CAE
S11322B0311CF3012381F20123FD859123FF8191D8
S11322C02F01882309F4B2C1853239F423FD8591A5
S11322D023FF81912F01853229F490E0B3010E94FC
S11322E04913E7CF982FFF24EE249924FFE1FF152B
S11322F0D0F09B3269F09C3228F4903259F093323A
S113230091F40EC09D3249F0903369F441E024C049
S113231052E0F52A84E0F82A28C098E0F92A25C07A
S1132320E0E1FE2A22C0F7FC29C0892F80538A30BD
S113233070F4F6FE05C0989C902C1124980E15C0DC
S1132340E89CE02C1124E80EF0E2FF2A0EC09E3235
S113235029F4F6FC6BC140E4F42A07C09C3619F456
S113236050E8F52A02C0983649F4F20123FD95910C
S113237023FF91912F01992309F0B8CF892F855418
S1132380833018F08052833038F444E050E0A40ED7
S1132390B51E5FE359830FC0933631F0933779F05C
S11323A0933509F056C020C0F5018081898342E04D
S11323B050E0A40EB51E610101E010E012C0F50169
S11323C0C080D180F6FC03C06FEF7FEF02C0692D9F
S11323D070E042E050E0A40EB51EC6010E943E1318
S11323E08C015FE7F52214C0F501C080D180F6FCB2
S11323F003C06FEF7FEF02C0692D70E042E050E050
S1132400A40EB51EC6010E9433138C0150E8F52AB0
S1132410F3FE07C01AC080E290E0B3010E944913A2
S1132420EA948E2D90E008171907A8F30EC0F60160
S1132430F7FC8591F7FE81916F0190E0B3010E9452
S11324404913E110EA94015010400115110579F780
S1132450EAC0943611F0993669F5F7FE08C0F50123
S1132460208131814281538184E090E00AC0F501EA
S1132470808191819C01442737FD4095542F82E04F
S113248090E0A80EB91E9FE6F92257FF09C05095A7
S11324904095309521953F4F4F4F5F4FE0E8FE2A1E
S11324A0CA01B901A1012AE030E00E947513D82EB7
S11324B0D21840C0953729F41F2D1F7E2AE030E042
S11324C01DC01F2D197F9F3661F0903720F4983579
S11324D009F0ACC00FC0903739F0983709F0A6C0A6
S11324E004C028E030E00AC0106114FD146020E14B
S11324F030E004C014FD166020E132E017FF08C08C
S1132500F501608171818281938144E050E008C0CB
S1132510F50180819181BC0180E090E042E050E0CF
S1132520A40EB51EA1010E947513D82ED2188FE7F0
S1132530F82EF122F6FE0BC05EEFF522D91438F422
S1132540F4FE07C0F2FC05C08FEEF82202C01D2D78
S113255001C0192DF4FE0DC0FE01ED0DF11D8081A9
S1132560803319F499EEF92208C01F5FF2FE05C00A
S113257003C08F2D867809F01F5F0F2DF3FC14C064
S1132580F0FE0FC01E1510F09D2C0BC09D2C9E0C50
S1132590911A1E2D06C080E290E0B3010E944913F7
S11325A01F5F1E15C0F304C01E1510F4E11A01C00C
S11325B0EE2404FF0FC080E390E0B3010E944913AE
S11325C002FF1DC001FD03C088E790E00EC088E54E
S11325D090E00BC0802F867891F001FF02C08BE25F
S11325E001C080E2F7FC8DE290E0B3010E94491340
S11325F006C080E390E0B3010E9449139A94D91471
S1132600C0F3DA94F101ED0DF11D808190E0B30186
S11326100E944913DD20A9F706C080E290E0B301CF
S11326200E944913EA94EE20C1F743CEF301668178
S11326307781CB012B960FB6F894DEBF0FBECDBFCA
S1132640CF91DF911F910F91FF90EF90DF90CF908A
S1132650BF90AF909F908F907F906F905F904F90BE
S11326603F902F900895FC01059061507040011037
S1132670D8F7809590958E0F9F1F0895FC016150A7
S1132680704001900110D8F7809590958E0F9F1F90
S113269008950F931F93CF93DF938C01EB018B81EC
S11326A081FF1BC082FF0DC02E813F818C819D81E3
S11326B02817390764F4E881F9810193F983E883E1
S11326C006C0E885F985802F0995892B31F48E8120
S11326D09F8101969F838E8302C00FEF1FEFC80175
S11326E0DF91CF911F910F910895FA01AA27283005
S11326F051F1203181F1E8946F936E7F6E5F7F4FCB
S11327008F4F9F4FAF4FB1E03ED0B4E03CD0670F46
S1132710781F891F9A1FA11D680F791F8A1F911D99
S1132720A11D6A0F711D811D911DA11D20D009F4E9
S113273068943F912AE0269F11243019305D31932B
S1132740DEF6CF010895462F4770405D4193B3E014
S11327500FD0C9F7F6CF462F4F70405D4A3318F0BB
S1132760495D31FD4052419302D0A9F7EACFB4E06C
S1132770A6959795879577956795BA95C9F7009724
S11327806105710508959B01AC010A2E06945795C5
S1132790479537952795BA95C9F7620F731F841F1C
S11327A0951FA01D0895629FD001739FF001829F21
S11327B0E00DF11D649FE00DF11D929FF00D839FCC
S11327C0F00D749FF00D659FF00D9927729FB00D69
S11327D0E11DF91F639FB00DE11DF91FBD01CF017C
S11327E01124089597FB092E05260ED057FD04D019
S11327F014D00AD0001C38F450954095309521959A
S11328003F4F4F4F5F4F0895F6F790958095709521
S113281061957F4F8F4F9F4F0895A1E21A2EAA1BF7
S1132820BB1BFD010DC0AA1FBB1FEE1FFF1FA2177C
S1132830B307E407F50720F0A21BB30BE40BF50B79
S1132840661F771F881F991F1A9469F76095709502
S1132850809590959B01AC01BD01CF010895F8943A
S1052860FFCFA4
S1072862010000006D
S9030000FC
